:020000040800F2
:10000000F8BF01205D010208CB6A0508B96A05083E
:10001000CD6A0508D96A0508E56A050800000000F0
:10002000000000000000000000000000F16A050868
:10003000F36A05080000000089790508C179050800
:1000400001000208DD6B0508E96B0508F16B050886
:10005000F9D4050801000208716B0508776B0508E3
:100060007D6B0508836B0508896B0508BD9705083E
:10007000CD970508DD970508ED970508FD9705085C
:100080000D9805081D9805080100020800000000F1
:100090000000000000000000000000008F6B050859
:1000A000056C05080B6C05081D6C0508236C05081C
:1000B000296C05082F6C0508356C0508676C050868
:1000C0006D6C0508736C0508796C05080100020861
:1000D00001000208556C05085B6C05080000000073
:1000E000B36B0508E36B0508016B05080000000011
:1000F0000000000000000000000000002D9805082E
:1001000000000000010002083D6C05080100020823
:1001100000000000000000000000000000000000DF
:100120003D9805084D9805085D9805086D980508E7
:100130007D9805080000000000000000000000009D
:10014000000000000000000000000000F56A050843
:100150008D9805089D980508AD980508616C0508FF
:100160007F6C0508856C0508000000000000000099
:10017000000000000000000000000000000000007F
:100180000000000001000208000000000000000064
:100190000100020801000208006870470B0A0170A4
:1001A00043700B0C090E8370C1707047036A0239EB
:1001B000023B8B4283BFC389406B01FB03000020DD
:1001C0007047C2F307238A76CB764379032B01BFAE
:1001D000120C0A75120A4A75704700F10B010022D1
:1001E000D30143EA520310F8012B52FA83F38842F9
:1001F000DAB2F5D11046704737B50D46044620B93E
:10020000092000232B6003B030BD0368002BF7D01A
:100210005A79002AF4D081885A899142F0D118681D
:100220000DF10702062102F075FA9DF8073003F080
:100230000103034313F0FF00E2D12368E2E72DE955
:10024000F0470026D0F800A08E75836907460C465B
:10025000002B00F08D80C36A01336ED1FA69002350
:10026000551E18462E2615F8011F202900F1010001
:100270000CD0052908BFE521092804D10B2B9EBF0E
:10028000E71801337E72E718013379720B28EAD13F
:10029000E11800204872A17D00295ED1002B53D0C7
:1002A0006FF0080604F109000825361B331810F812
:1002B000011B00294BD02E298BB25BD0A3F1410149
:1002C000192903D8117B0D4200D020330373EDE7C9
:1002D000B9F1000F05D100F520539BB2B3F5006FC3
:1002E00013D340F2B51140EA094047F05BFCFF2808
:1002F000C8F1FF0519D9012D22D904EB0803020A20
:100300009A75D87502239844002002368146DAF89F
:100310001030985B0028DBD14546B9F1000F18BFBB
:10032000002525440023AB7598E758B1002DF4D083
:1003300004EB080398750123E5E7B146B046E6E70C
:100340000025EAE70546E8E73F23A3750123234498
:1003500000219975137B03B96372D37A237202F17A
:100360001C00FFF719FF2060D38AE380138BA38062
:10037000BDE8F08710250B46A8E738B505680446A8
:1003800015F8010B20B140F2B51147F02BFC08B174
:10039000256038BD4FF0FF30FBE737B5C379044621
:1003A0001BB90025284603B030BD00F13C01826B2B
:1003B00000680191012302F098F9054680B9E36ACB
:1003C000E071A06B626AC31A9342EAD2A3790199E1
:1003D000022BE6D102440123206802F086F9E1E70E
:1003E0000125DFE738B5836B8B4205460C4610D0FC
:1003F000FFF7D3FF60B922462868012305F13C01CD
:1004000002F064F900281CBF4FF0FF340120AC63F8
:1004100038BD0020FCE7000038B50023C3714FF061
:10042000FF3383630546FFF7DDFF0446F8B9B5F8EF
:100430003A224AF655239A421BD195F83C30EB2BD1
:1004400003D01833DBB2012B15D80C49032205F178
:1004500072004DF0A7FE40B10949052205F18E005A
:100460004DF0A0FE002818BF0224204638BD042409
:10047000FBE70324F9E70224F7E700BF708D0708C4
:10048000748D0708F0B5437987B0044601F0FE0586
:100490008BB100680DF10702062102F03BF99DF8CF
:1004A0000730DE0707D41DB113F0040500D00A257C
:1004B000284607B0F0BD0023637120680DF10702E4
:1004C000052102F027F99DF80730D80700F1E680F2
:1004D0000DB15907EBD400212046FFF79DFF0228FC
:1004E00003D0012823D825796DB302AA04F2022390
:1004F00004F24221174613F8040C10B11846FFF716
:100500004BFE1033994242F8040BF4D1267906B120
:10051000013E57F8265075B129462046FFF77CFF6B
:10052000237953B901280ED90136032EF1D90428B5
:1005300007D10125BCE70320F2E70428F9D0012800
:1005400001D90D25B4E7B4F84730B3F5007FF8D1F1
:10055000B4F8521021B904F16000FFF71DFE014606
:1005600094F84C3061625A1E012AA371E9D894F8BC
:100570004960E681002EE4D0721E3242E1D1B4F827
:100580004D70A7813A07DCD1B4F84F0018B904F1D7
:100590005C00FFF701FEB4F84A20002AD1D001FB2D
:1005A00003FE02EB171CF4446045CAD3A0EB0C0019
:1005B000B042B0FBF6F3C4D33D488342C1D84FF6F6
:1005C000F57083426CD9032602332A440CEB0500F4
:1005D000032E2362A562E26260634FD1B4F8662005
:1005E0003A43AED104F16800FFF7D6FD9B002063CB
:1005F00003F2FF13B1EB532FA3D34FF0FF33C4E942
:100600000533032E4FF0800323722BD1B4F86C30E6
:10061000012B27D1691C2046FFF7E4FE10BBB4F87C
:100620003A2220724AF655239A421BD104F13C002B
:10063000FFF7B2FD1F4B984214D104F50870FFF785
:10064000ABFD03F1FF5303F500532033984209D16A
:1006500004F50970FFF7A0FDA06104F50A70FFF72B
:100660009BFD6061144A6671138801339BB213804D
:1006700063810025114B2361E56119E7002F3FF4E9
:1006800060AF7244022E22634FEA43021BBFD218AE
:1006900003F00103134603EB5203A9E7032507E721
:1006A00040F6F576B3428CBF022601268CE700BFE8
:1006B000F5FFFF0F52526141CC040020CE04002010
:1006C00001292DE9F04706460C46174673D9036AFF
:1006D0008B4270D94379022B3FD0032B50D0012B92
:1006E00069D101EB5108C16A01EB5821FFF77AFE8D
:1006F000054638BB06F13C0908F1010AC8F30808B1
:1007000014F001041FBF19F8083003F00F023B0179
:1007100003F0F00314BF1343FBB209F80830F16A89
:100720000123F37101EB5A213046FFF75BFE0546CA
:1007300040B9CAF3080A44B1C7F3071709F80A70A9
:100740000123F3712846BDE8F08719F80A30C7F392
:10075000032723F00F031F43F0E7C16A01EB1421C5
:10076000FFF740FE05460028ECD1640006F13C038B
:1007700004F4FF7418191F55C7F307274770DFE704
:10078000C16A01EBD411FFF72DFE05460028D9D12F
:10079000A40006F13C0304F4FE741C442046FFF759
:1007A000FBFC27F0704700F0704047EA000120464C
:1007B000FFF7F4FCC4E70225C4E7F7B5054601914D
:1007C000FFF7EBFD044600BB01992846FFF7EEFC5E
:1007D00005F13C070646A8634FF4007221463846EF
:1007E0004DF0B8FCEB899C4205D3E889001B18BF8B
:1007F000012003B0F0BD286801233219394601F009
:1008000074FF0028F1D10134ECE70120F1E7F8B5DD
:100810000446FFF7C2FD0546002842D16379032B49
:1008200037D1277A012F34D104F13C0601464FF429
:10083000007230464DF08EFC552384F83A32AA23DC
:1008400084F83B3252234122722184F83C3084F8F0
:100850003D30612384F83E3084F8233284F83F2011
:1008600084F8201284F8211284F82222A16904F568
:100870000970FFF793FC616904F50A70FFF78EFCBD
:10088000A26A20680132A2633B46314601F02DFF87
:10089000257200222068114601F03CFF003818BF85
:1008A0000120F8BD03284B8B04BF8A8A43EA024328
:1008B000184670470129F8B506460C464ED9036A1A
:1008C00099424BD24379022B29D0032B34D0012BF0
:1008D00044D101EB5105C16A01EB5521FFF782FDBF
:1008E00010B14FF0FF30F8BD6F1CF16AC5F3080579
:1008F000354401EB5721304695F83C50FFF772FD27
:100900000028EED1C7F308073E44E30796F83C0001
:1009100045EA00204CBF0009C0F30B00E3E7C16AC1
:1009200001EB1421FFF75EFD0028DAD1640004F426
:10093000FF742644B08FD6E7C16A01EBD411FFF7EC
:1009400051FD0028CDD1A40006F13C0004F4FE7452
:100950002044FFF721FC20F07040C4E70120C2E7EB
:1009600037B50C46012C054611462BD9036A9C422B
:1009700028D222B14FF0FF32FFF7A2FE40B9214644
:1009800028460194FFF796FF0199044610B900200C
:1009900003B030BD012815D0431C15D000222846D5
:1009A000FFF78EFE0028F3D12A6AAB69911E8B42B5
:1009B00005D20133AB612B7A43F001032B729442D1
:1009C000DDD3E4E70220E3E70120E1E7F8B50546DF
:1009D0000F4649B94669B6B1036A9E4228BF01264F
:1009E000AB6993B9002405E0FFF764FF01280446D2
:1009F00002D801242046F8BD421C50D02B6A9842F0
:100A0000F8D33E46ECE70126EAE7B74215D12B6A58
:100A10007C1C9C4228BF022421462846FFF74AFF3F
:100A20000128E6D0431C3AD0D8B16B69012B04D918
:100A30002A6A934234BF1E463E4634462B6A01342E
:100A40009C4202D3012ECDD9022421462846FFF72D
:100A500031FF40B10128CCD0013020D0A642EDD1E9
:100A6000C0E7002CE9D04FF0FF3221462846FFF7BF
:100A700027FE90B957B92A6AAB696C61023A934272
:100A800010D92B7A43F001032B72B3E72246394683
:100A90002846FFF715FE0028EDD00128A9D14FF018
:100AA000FF34A7E7013BAB61EBE72DE9F8430769AA
:100AB00006682037B7F5001F24BF002383618369D0
:100AC0000446894673B1C7F30808B8F1000F39D15D
:100AD00041690133836139B9B389B3EB571F31D809
:100AE0000023A36104200BE0F389013B13EA5723A1
:100AF00028D13046FFF7DEFE0128054602D8022045
:100B0000BDE8F883421C01D10120F9E7336A834232
:100B100012D8B9F1000FE3D061692068FFF756FFE2
:100B20000546A8B10128EAD0431CEDD00146304665
:100B3000FFF743FE0028E7D1656129463046FFF7FD
:100B400035FBA0613C3646442761E6610020D7E7CB
:100B50000720D5E72DE9F047FF27D0F8009006469B
:100B600088463D4604244FF6FF7AB16911B9002C3E
:100B700064D054E04846FFF735FC044600284ED1C7
:100B8000F0690178002961D0C37AE52903F03F03B9
:100B9000B37149D02E2947D023F02002A2F1080CCE
:100BA000DCF1000242EB0C0242453DD10F2B40D15B
:100BB0004C0637D53369477BF36201F0BF01437BB5
:100BC000BB4231D1428B7ABB0378D9F81040DFF8B1
:100BD00080E023F040030D25013B6B4301251EF807
:100BE00001CB30F80CC00DB3FF2B1DD824F813C077
:100BF0006546013301320D2AF1D10278520605D53E
:100C000025B1FF2B10D8002224F813204D1EEDB281
:100C100000213046FFF749FF04460028A5D00023F5
:100C2000B3610CE08D42CAD0FF25F1E7D445E1D095
:100C3000FAE73DB9FFF7D1FAB84203D100242046C4
:100C4000BDE8F0874FF0FF33F362F8E70424E6E7EE
:100C50003E8E0708B1F5001FF8B506460C4601D3D5
:100C60000220F8BDCA06FBD1826805680161CAB9D5
:100C70006B79022B01D92B6B9BB9AB89B3EB541F5A
:100C8000EED92B6BB361B3697261002BE8D003EB33
:100C900054233C35C4F308042C44B361F4610020B0
:100CA000DFE71A46EF897F02BC42114604D228468C
:100CB000FFF77CFAB061E6E73068FFF7FBFD431C05
:100CC000024606D00128CBD92B6A8342C8D9E41B3F
:100CD000EAE70120C5E7F8B50E460021076804469B
:100CE000FFF7B8FFA8B90546A1693846FFF77AFBB8
:100CF00078B9E3691B78E52B00D01BB90135B54203
:100D000001D1F8BD054601212046FFF7CEFE00289F
:100D1000EAD0042808BF0720F3E7C16A4B1C2DE97D
:100D2000F04105680669044618D1E5274FF001082F
:100D3000A1692846FFF756FB60B9E3691F7085F883
:100D400007802369B3420DD201462046FFF7ADFE6E
:100D50000028EDD0042808BF022003E0FFF77AFF47
:100D60000028E2D0BDE8F0812DE9F04F002185B0E8
:100D7000D0F800B00446FFF76DFF0546002840F0AC
:100D80008D804FF0FF3A4FF0FF08C4F82CA0C14609
:100D9000A1695846FFF726FB054600287ED1E66983
:100DA0003778002F7ED0F27AE52F02F03F03A3714F
:100DB00003D0100704D50F2B04D0C4F82CA050E0AA
:100DC0000F2B56D194F82B30590640D47A0646D5CD
:100DD000236996F80D80E36207F0BF07737B4345F4
:100DE0003FD1738B002B3CD13578DBF8103000936A
:100DF00005F03F05013D0D23DFF8B0905D43012272
:100E000019F8013BF35A7AB3FF2D2AD818460393F9
:100E100046F0FCFE009B0290691C33F8150001911E
:100E200046F0F4FE029A82421BD1039B01991A46B6
:100E30000D461D4B9945E3D133785B0604D51AB1B5
:100E4000009B33F8153063B9013F5FFA87F9002141
:100E50002046FFF72AFE0546002899D01EE0B94536
:100E6000BCD04FF0FF09F2E74FF6FF718B42E0D0A4
:100E7000F7E7B9F1000F04D13046FFF7AEF940456E
:100E80000CD094F82B5015F0010596D10B2204F1EB
:100E9000200130464DF086F900288ED1284605B055
:100EA000BDE8F08F0425F9E74B8E07083E8E070852
:100EB0002DE9F04F90F82BB01BF0A00489B0054647
:100EC00040F0E58007683A6932F81430002B6ED1A3
:100ED00005F1200696E807000DF1140A1BF0010F3A
:100EE0008AE8070000F0DA80402385F82B304FF0C5
:100EF00001089AE80700B4463B69ACE803002CF807
:100F0000022BB8F1050F4FEA12428CF8002062D98B
:100F1000981E424630F8021F00294AD10DF1130CE9
:100F2000072102F00F0E0EF13000392888BF0EF1B4
:100F300037000F2A0CF8010901F1FF314FEA1210B6
:100F40004BD801F120030DEB03027E2002F8140CB4
:100F500030460022914206D010F801CBBCF1200FA0
:100F600002F1010E3BD105F11F0C07299CBF01F1D5
:100F700020030DEB030002F1010296BF10F8140CE0
:100F800020200131072A0CF80200EED92846FFF78D
:100F9000EBFE814600287DD108F10108B8F1640F0D
:100FA000A7D14FF00709484609B0BDE8F08F0134DA
:100FB0008AE74FF0100C01F0010E0EEB4202D30352
:100FC00044BF82F4883282F02102BCF1010C4FEA66
:100FD0005101F0D19EE74246A0E70246A1E77246E2
:100FE000B8E729692846A1EB4411FFF733FE814693
:100FF0000028D8D13046FFF7F0F84FF6FF7801907F
:10100000A9693846FFF7EEF981460028CBD1EB6994
:10101000019AD7F810E05A73E1B24FF00F024FF087
:101020000D0CDA72DFF8D8A018734A1E0CFB02F21E
:101030009876D87684461AF8019B404518BF3EF84A
:10104000120003F8090003EB090B0CF1010C18BFA7
:1010500001324FEA1029002808BF4046BCF10D0FAD
:101060008BF80190E7D1404502D03EF812200AB932
:1010700041F0400119700123FB7100212846FFF760
:1010800014FD814600288ED1013CB9D11AE04FF001
:10109000060988E7042886D185F82BB01BF0020FDB
:1010A0001BBF0C340D210124B4FBF1F418BF013433
:1010B00021462846FFF70FFE814600287FF473AFD4
:1010C000013C8ED1A9693846FFF78CF9814600288A
:1010D0007FF469AF01462022E8694DF03BF803CE6A
:1010E000EB6918605960B278318819819A7295F865
:1010F0002B30EA6903F0180313730123FB7152E7E5
:101100003E8E07082DE9F04F0A78036887B02F2A32
:1011100006468B46019301D05C2A0AD159460A78CB
:101120002F2A8B4601F10101F9D05C2AF7D0002269
:1011300001E0019BDA69B2609BF800201F2A00F2EF
:10114000218180230021304686F82B3007B0BDE88E
:10115000F04FFFF77FBDFE2D00F23D8129F81520ED
:10116000013515E101330593059B19782F29F9D035
:101170005C29F7D0202A34BF04240024012DDDF897
:1011800014B02DD1B9F800202E2A2FD1002229F831
:10119000152006F1200195428CBF2E20202001321F
:1011A0000B2A01F8010BF6D144F0200486F82B40FD
:1011B0003046FFF7D9FD96F82B20002800F0D280AA
:1011C000042840F00981950602F0040140F1C68030
:1011D000002900F0D780802386F82B300020FBE028
:1011E000022D03D1B9F802202E2ACBD0A9F1020199
:1011F00095BB002229F81520002D00F0EC8039F86D
:1012000012002028114602F10102F8D009B92E2857
:1012100001D144F00304A9F1020030F815202E2A70
:1012200001D0013DF9D14FF020324FF00008726239
:101230003262C6F827204FF0080A474639F81100F5
:101240004A1C00B3202803D02E280DD1AA420FD06B
:1012500044F003041146F1E731F81520202A01D0AB
:101260002E2AC6D1013DC3E7D04505D2AA4239D1C5
:10127000BAF10B0F2ED102E0BAF10B0F25D144F0D9
:1012800003044FF00B0A96F82020E52A04BF05223C
:1012900086F82020BAF1080F04BFBF00FFB207F0A4
:1012A0000C020C2A03D007F00302032A01D144F0F8
:1012B0000204A2073FF57AAFFB0748BF44F01004D1
:1012C0007F0748BF44F0080470E7AA4202D044F008
:1012D0000304D8D8BF00FFB22A464FF00B0A4FF0E4
:1012E0000808B7E77F2812D944F0020340F2B5118D
:1012F0000392029346F056FC10F0800FDDE90232B3
:1013000010D03F4900F07F00085C1C4630B13D4BD7
:1013100013F8011B002964D08142F9D144F0030481
:101320005F2011E0FF28F0D90AF1FF31884503D38F
:1013300044F00304D0468DE706EB0801040A81F867
:10134000204008F101081C4606EB080108F10108DD
:1013500081F820007EE747F00207F5E7002908BF83
:10136000052039E0520737D4B279D30637D5019B2F
:101370003169587903F13C02C1F308011144FFF7C8
:1013800091FAB0603368CDF814B0D3F8109000250E
:1013900005A8FEF7F2FF411C1DD0B0F5803F28BF25
:1013A000030C82B224BF29F8153001351F2A7FF6BD
:1013B000E1AE2F2A3FF4D8AE5C2A3FF4D5AE7F2AA7
:1013C0003FF6C9AE1049104611F8013B002B3FF41F
:1013D000C2AE8342F8D1062007B0BDE8F08F0520E9
:1013E000FAE7A0F1410189B21929B4D9A0F161014C
:1013F00089B219299EBF203847F0010780B2A3E7C0
:10140000BE8D0708838D07087A8D0708002141717A
:10141000FFF738B82DE9F04105468CB090461E46DE
:101420000C46002900F0BB8003F03F073946FFF768
:1014300029F8002840F0AB80414668460095FFF748
:1014400061FE024620B99DF92B30002BB8BF062261
:1014500016F01C0F68D0002A3AD0042A35D168460D
:10146000FFF726FD024680BB47F00807DDF81C8029
:1014700068794146FFF716FA06465CF029FA0146FC
:1014800008F10E00FEF78AFE079B2022DA72079908
:1014900000222846FEF795FE079B00221A775A770E
:1014A0009A77DA770123EB71DEB10098D5F83880AE
:1014B0003146FFF755FA024638B941462846FEF74D
:1014C00091FF013E6E61024658B10023236027E080
:1014D0009DF8063013F0110F30D1730759D430073F
:1014E000C4D4AB6B0799236261623807687948BF3F
:1014F00047F04007FFF7D6F9A060034601F11C0052
:10150000FEF74AFE6A89A280B9064FF0000206463D
:10151000E060256027746274E261626110D4002289
:1015200010460CB0BDE8F081002ACED19DF80630FF
:10153000D90630D4B207D4D5DE07D2D50722C4E706
:101540000028ECD0EF8960617F02B74210D30022FF
:10155000A361002AB9D1C6F308010029DFD01946DA
:101560002846FEF723FEC0B100EB5620E061D7E726
:1015700019462068FFF79EF901280346A6EB0706E7
:1015800003D9421CE1D10122E2E70222E0E7024650
:101590009BE7082299E7042297E7022295E70922B0
:1015A000BEE72DE9F04F994685B000238846C9F87B
:1015B000003003A904461746FEF71EFE0646F8B99A
:1015C000667CEEB994F810A01AF0010300937CD069
:1015D000E2686369D21A974228BF174687B16269E9
:1015E000C2F30803002B57D1039BDB89013B13EAAD
:1015F000522A15D142B9A06801280AD80226667479
:10160000304605B0BDE8F08FA1692068FFF752F9B8
:10161000F2E7431C03D10123009E6374F0E7A0614D
:10162000DDF80CB0A1695846FEF7C0FD0028E5D0F2
:10163000B7F5007F0AEB00022DD3BBF80E10019224
:101640000AEB572088424FEA572588BFA1EB0A05CD
:10165000DBF800002B46414601F038F80028DAD1CB
:101660000399CB795BB1886B019A801AA84206D2A4
:101670004FF400723C3108EB40204CF027FD6D0226
:10168000D9F800302B44C9F8003063692B447F1B24
:10169000A8446361A2E7E2616569E1690398C5F363
:1016A0000805C5F50075BD4228BF3D46FEF79AFE08
:1016B0000028B0D1039963693C31C3F308032A467B
:1016C000194440464CF002FDDAE7072698E72DE979
:1016D000F04F9A4685B000238946CAF8003003A926
:1016E00004461746FEF788FD064620BB667C16BBFF
:1016F000237C9A0740F1A9806369FB4200D3DF4352
:10170000AFB16369C3F30802002A40F08180039AF5
:10171000B2F80E8008F1FF3818EA53281ED173B9C9
:10172000A06870B901462068FFF750F948B9237CDA
:1017300043F040032374304605B0BDE8F08FA16943
:10174000F1E7012802D102266674F4E7431C01D1B7
:101750000126F9E7A368A06103B9A0600398E369D3
:10176000826B9A4203D1FEF718FE0028F0D1039D48
:10177000A1692846FEF71AFD0028E4D0B7F5007FDE
:1017800008EB000B36D3E98908EB572088424FEA73
:101790005723286888BFA1EB08035A46494601939E
:1017A00000F0A3FF05460028D2D1DDF80C80019B94
:1017B000D8F83810A1EB0B0199420AD24FF400720D
:1017C00009EB412108F13C004CF080FC019B88F8BA
:1017D00007505D02DAF8003062692B44CAF8003025
:1017E0007F1BE368A94415446561AB422CBFE360ED
:1017F000E56085E76169E368994207D32846FEF70B
:10180000CCFD0028A4D1039BC3F838B0C4F81CB0A9
:101810006569E1690398C5F30805C5F50075BD4222
:1018200028BF3D46FEF7DEFD002891D1039863698D
:101830003C30C3F308032A46184449464CF046FCA2
:10184000039B4FF00102DA71C4E7072673E7F7B58F
:1018500001A90546FEF7D0FC044660BB2C7C14F0C1
:10186000400428D05CF034F8296A07460198FEF756
:10187000B9FD0446F8B96E6AF37A43F02003F372B7
:10188000AA6828683146FEF79CFCE96806F11C004E
:10189000FEF784FC394606F11600FEF77FFC01983E
:1018A000B4740123F474C371FEF7B1FF2B7C23F0F1
:1018B000400304462B74204603B0F0BD13B5044624
:1018C000FFF7C5FF28B901A92046FEF795FC00B92E
:1018D000206002B010BD70B50E468CB000210546E8
:1018E000FEF7D0FD044660B9314668460095FFF723
:1018F00009FC044690B99DF92B30002B04DA029BB9
:10190000EB6120460CB070BD9DF80630DB0609D5B2
:1019100007996879FEF7C6FFE861F2E7042808BF77
:101920000524EEE70524ECE72DE9F0470E460021FB
:10193000D2B0317081469046FEF7A4FD0546F0B95D
:10194000D9F81C30CDF8009002934446DDF808A089
:10195000BAF1000F19D1444502D1013C2F23335570
:101960003346A11B1A5D03F8012B5A189045F9D88C
:10197000A8EB04030134A04538BF01231E44002313
:101980002846337052B0BDE8F08720216846FFF743
:1019900061F9002849D106994846FEF723FD07461C
:1019A000002840D1079999F80500FEF77BFF3946DA
:1019B00002906846FFF74EF9B8BB00216846FFF772
:1019C000C9F80746A8BB079999F80500FEF76AFF12
:1019D00050450AD039466846FFF767F80028ECD032
:1019E0000546042D08BF0225C9E70CA96846FEF785
:1019F00026FC0DF14603194613F8012BBA460137B0
:101A0000002AF9D1A74212D8A4EB0A00524630446A
:101A10004CF05CFB631EA3EB0A036FEA0A022F2162
:101A2000F154144492E70546A9E70546A7E71125B6
:101A3000A5E70546D5E72DE9F3410D4601A9044682
:101A4000FEF7DAFB0646002850D1667C002E4DD109
:101A5000E368AB4204D2227C12F0020F08BF1D469D
:101A60000022636962619DB90025E268636993425F
:101A700082BF227CE36042F04002C3F3080388BFC8
:101A80002274002B32D0E369AB4218BFE5612DE030
:101A9000019AD7897F02FBB1013B6A1EB3FBF7F1C4
:101AA000B2FBF7F28A4217D37A421340A16963610D
:101AB000ED1A0029D8D0BD42636922D863692B444E
:101AC0006361C5F30803002BCED00198FEF76EFBCF
:101AD00050B100EB5525C8E7A16881B92068FEF731
:101AE00075FF0128014605D102266674304602B012
:101AF000BDE8F081481C01D10126F6E7A160A16193
:101B0000D7E73B446361237C20689A07A5EB07086D
:101B100005D5FEF75BFF054620B90146CEE7FEF787
:101B2000C9FE05466B1CE7D0012DDDD9019B1B6A60
:101B3000AB42D9D9A56129464546BCE770B50546F3
:101B400016460C4621B30021FEF79CFC68B92560BF
:101B500031462046FFF7D6FAE0B994F92B30002B36
:101B60000BDBA379DB0603D40520002323600EE002
:101B70006879E169FEF796FEA0606B89A380002179
:101B80002046FFF767F80428EED00028EDD170BD9D
:101B90000920FCE70428E7D0E7E713B501A90446CC
:101BA000FEF72AFB00B9206002B010BD73B50D46E8
:101BB00001A90446FEF720FB20B9014620461DB9C5
:101BC000FFF748F802B070BDFEF7C4FF10F0FB0647
:101BD000F8D129462046FEF732FB31462046FEF773
:101BE00064FF042808BF0020ECE770B50E468CB0F7
:101BF000002104461546FEF745FC0094044670B9E2
:101C000031466846FFF77EFA044640B99DF92B300D
:101C1000002B07DB1DB129466846FEF710FB204666
:101C20000CB070BD0624FAE72DE9F84F8846002174
:101C30000446FEF727FC054640B9D4F820A0A36966
:101C4000AAF10202934204D8C8F800302846BDE841
:101C5000F88F6379012B17D10227064639462046B3
:101C6000FEF728FE431C34D0012834D000B90136D9
:101C7000236A0137BB42F1D8C8F80060237AA66115
:101C800043F001032372E1E7E16A0746064604F1E7
:101C90003C0937B9204601F1010BFEF7A3FBE0B97F
:101CA00059466379022B09EB07000AD139F807304E
:101CB00003B901360237BAF1010AC7F30807E8D1C0
:101CC000DAE7FEF769FA30F0704308BF01360437EF
:101CD000F1E70125D0E70225CEE70546CCE7F0B5D0
:101CE0000E4699B002210546FEF7CCFB044688B9A2
:101CF000314668460095FFF705FA044650B99DF84D
:101D00002B3098063BD4190639D49DF80670FA0793
:101D100003D50724204619B0F0BD07996879FEF76E
:101D2000C1FDFB0606460BD46846FEF7F6FF0446E7
:101D30000028EFD1D6B92846FEF769FD0446E9E749
:101D4000EB698342E5D00E9021460CA80C95FEF776
:101D500081FF04460028DDD101460CA8FEF7FAFEFB
:101D600004460028D5D00428D4D1DDE70246314608
:101D70000098FEF7F5FD04460028CBD1DBE70624EA
:101D8000C8E72DE9F0410E468CB002210546FEF76A
:101D900079FB0446002868D1314668460095FFF774
:101DA000B1F9044600286ED004285ED19DF82B10AE
:101DB00011F0200169D12846FEF708FE06460028EA
:101DC00057D0012857D0431C5C425C415BF080FD3A
:101DD0000746002C51D131462846FEF7EEFC04465A
:101DE00000284AD14FF02033EB632B64C5F8433011
:101DF0002E2385F83C30102385F84730394605F10D
:101E0000520005F13C04FEF7C9F932462146284646
:101E1000FEF7D7F905F15C031A4651F8040B42F8B6
:101E2000040B9942F9D12E23029A85F85D30284699
:101E30004FF00108FEF7C5F985F807806846FFF7FF
:101E400037F80446C8B9079839461630FEF7A6F9A0
:101E5000324607992846FEF7B4F9079B1022DA723A
:101E600085F80780FEF7D3FC044620460CB0BDE899
:101E7000F0810724AAE70224A8E700223146284679
:101E8000FEF76EFDF1E70824EFE70624EDE7F0B575
:101E90000D46A1B0022104461746FEF7F3FA0028CA
:101EA00077D1294608A80894FFF72CF9002870D1AB
:101EB0009DF84B3013F0A00F6DD10F9B6D4603F1D1
:101EC0002006186859682A4603C20833B3421546EB
:101ED000F7D108AE0FCE14AD0FC50FCE0FC596E8E3
:101EE0000F0085E80F00394614A8FFF70BF948B931
:101EF000169A0A9B9A4203D1189A0C9B9A4203D0D5
:101F0000082046E0042844D114A8FEF7D1FF002899
:101F10003FD11B990DF10D0301F10D020DF11D00D3
:101F200053F8045B42F8045B8342F9D118881080AF
:101F30009B7893709DF80B30DA0658BF43F020036E
:101F40000125CB72E571CB7ADB061BD50A9A169B6D
:101F50009A4217D06079FEF7A5FC01462046FEF7AD
:101F600025F90146C8B12046FEF73CFA88B994F835
:101F70005D302E2B06D1169A04F15C012046FEF747
:101F800020F9E57108A8FEF7C8FE10B92046FEF753
:101F90003EFC21B0F0BD0620FBE70220F9E700007F
:101FA000F0B595B0064601910221FEF76BFA0446A2
:101FB000002833D102AF4FF02033029305467B60F7
:101FC000C7F80730019B1B781F2B20D89DF80830DD
:101FD000E52B22D01DB16B1EFA5C202A30D00021E7
:101FE00008A808960A91FEF735FE0446B0B901210B
:101FF00008A8FEF7AFFD70BB0F9A1DB33B4603CB9D
:102000001060516019889B78937211811CE001A8BF
:10201000FEF7B3F9B0F5803F03D30624204615B090
:10202000F0BD45F0F3FD40F2B51145F0BBFD0028D1
:10203000F3D01E4A12F8013B93B39842FAD1ECE771
:102040001D46C7E7E52313700123F3713046FEF701
:10205000DEFB0446E2E70428FBD1002DDED001219F
:1020600008A8FEF738FE04460028D7D120220146F2
:102070000F984CF06FF80F9B0822DA720F9ABDE7A9
:10208000092DCAD805F150036B44020A03F8482C05
:10209000013505F150036B44013503F8480C91E715
:1020A000FF28EDD80A2DF4D9B7E700BF4B8E0708FB
:1020B0002DE9F04FD0F800808BB01C46002343710F
:1020C000029103790193154605210DF11F02404647
:1020D00000F020FB9DF81F30DA0700F17D825E07DB
:1020E00000F17C8208AA0321404600F013FB30B9BE
:1020F000089A531EB3F5004F01D21A4201D00123B2
:1021000008935DB15A4BA5F500729A4203D913208A
:102110000BB0BDE8F08F6B1E2B42F8D1002C00F005
:102120005F82149BB3F5007FC0F05A82019B002BA5
:1021300062D0012300222146404600F0C7FA08B1D0
:102140000120E5E7B4F8FE214AF655239A4201D072
:102150000E20DDE7019B04EB031202F5D77392F822
:10216000B221002AF4D003F10800FEF715F8074663
:1021700003F10C00FEF710F80990DDF824B0BBF174
:10218000150FE5D9B5F5813FC1D2029B13F00203CB
:1021900005934FEA5522029B41D003F00703022B1F
:1021A00000F02C82029BD80740F12882002A3FD100
:1021B00030484FEA1B35012630F8023B0BB1AB42E9
:1021C00034D940F6F573BBFBF6F59D429BBF05EB9A
:1021D0004505013502356D088CBF6D0003354FF0A4
:1021E000200305F2FF1504938CBF4FF002094FF056
:1021F00001096D0A012324E209AA0121404600F0E9
:1022000089FA00289CD1029B13F0080F099B14BF88
:1022100000273F27BB429BD3DB1B0993ADE7D907C0
:10222000C4D474E75200F0E11346F5E17600C3E749
:102230001646C6E7B9F1020F1ED103994FF6F570A5
:10224000814208D9002A40F0D5817600402E00F264
:1022500030823246AAE7039940F6F570814213D8DE
:10226000002A7FF475AF7200802A9FD970E700BF03
:1022700000FEFF005E8E0708039940F6F57291425A
:102280003FF666AF4FF001094FF40072002120467F
:1022900005934BF05FFFD34A059B1168A373C3F30B
:1022A0000723B9F1030F2160E373516861604FF0B8
:1022B000010323741189927AA2720CBF00234FF498
:1022C000007302221B0ABBF5803F218122736673D3
:1022D000A37480F01D8184F813B0CBF3072B84F82E
:1022E00014B0F82363753F2323764FF0000BFF23D0
:1022F00084F819B0A37684F81BB0394604F11C00A9
:10230000FDF74CFFB9F1030F40F008815BF0E0FAF4
:10231000014604F14300FDF741FF294604F1240082
:10232000FDF73CFF022384F82C30012384F8303081
:10233000062384F83230802384F84030292384F83F
:102340004230A94B84F82DB084F82EB084F82FB019
:1023500084F831B084F833B004F1470203F110017E
:1023600053F8040B42F8040B8B42F9D119889B787F
:1023700093704FF05503118084F8FE316FF05503D0
:1023800084F8FF313A4601232146404600F0ADF97A
:10239000834600287FF4D4AEB9F1030F3ED1012368
:1023A000BA1D2146404600F0A0F94FF4007259468C
:1023B00020464BF0CFFE5223237063706123A3703D
:1023C00084F8E731039B41227221E27084F8E41122
:1023D00084F8E51184F8E621591E04F5F470FDF740
:1023E000DDFE022384F8EC314FF0550384F8FE3112
:1023F0006FF0550384F8FF31FA1D0123214684F85C
:10240000EDB184F8EEB184F8EFB1404600F06DF91B
:102410000123FA182146404600F067F9149B23F483
:10242000FF7222F00102002120464BF093FEB9F129
:10243000030F40F09080F8232370FF236370A37094
:10244000E37023716371A371E37123726372A372EA
:102450000F23E372149B5B0A0393039BAB4228BFD9
:102460002B462146524640469B4600F03EF9014627
:1024700000287FF465AE4FF4007220464BF06AFEF0
:10248000B5EB0B05DA44E8D1049BB9F1030F18BF93
:102490001E46039DB54228BF35462B46524621466F
:1024A000404600F022F900287FF44AAE761BAA4489
:1024B000EFD1B9F1030F58D0099BB3F5803F56D245
:1024C000B9F1020F0CBF04250125019B002B50D050
:1024D000002201232146404600F0F8F80246002879
:1024E0007FF42EAE019B04EB031383F8B25101235A
:1024F0002146404600F0F9F800287FF421AE002282
:102500001146404600F006F9003818BF0120FFE5EB
:10251000594604F12000FDF741FEE2E65BF0D8F9F0
:10252000014604F12700FDF739FEC5F30723E375E3
:10253000802384F82430292384F826302B4BA5757A
:1025400004F12B0203F1100153F8040B42F8040BC1
:102550008B42F9D10AE7B9F1010F2549204618BF8E
:102560006FF00701FDF71AFE74E70C25ADE70625AD
:10257000ABE7029B1B07C2D401994FF400722046BF
:102580004BF0E8FD099A84F8C251552384F8FE31D6
:10259000AA2384F8FF313A4443F6C163B2FBF3F255
:1025A000FE2384F8C331930843F03F03012684F8E7
:1025B000C43184F8C521394604F5E37084F8BF615D
:1025C00084F8C061FDF7EAFD099904F5E570FDF7AF
:1025D000E5FD019A33468BE7032099E50A2097E54C
:1025E000112095E58A8D0708968D0708AA8D0708A2
:1025F000F8FFFF00059B002B3FF4AAAD002A7FF4F3
:1026000013AE30484FEA5B45012230F8023B1BB164
:10261000AB427FF607AE0023BBFBF2F02A4E8500EB
:10262000A0F57F40F63805F20725B0424FEA552560
:102630003FF68EAD16461A46002304934FF0030969
:1026400020230498DDF820E007EB030A05EB000CDB
:10265000D4440EF1FF306044CEF1000E00EA0E00CB
:10266000A0EB0C00B9F1030F06BF1B1882442D1814
:10267000C7EB06108444E345FFF46AAD0498ABEB66
:102680000000C01AB9F1030FA0EB0500B0FBF6F093
:1026900003907FF4CFAD03994FF6F57081423FF67A
:1026A000F3AD002A7FF454AD012E7FF651AD7208D0
:1026B000A4E7059B002BA4D1802E3FF649AD3246FE
:1026C0007FE500BF6C8E0708FFFFFE0F10B50C46BC
:1026D00011461A4638B12346043044F03FFA003818
:1026E00018BF012010BD0420FCE710B50C461146B0
:1026F0001A4650B12346043044F076FA10F11E0F0A
:1027000005D0003818BF012010BD0420FCE70220CE
:10271000FAE7000070B50D4614460646002833D08F
:10272000244A01F00703D15C00292FD00022043095
:1027300044F0AAFA062D27D8DFE805F008050A16A6
:1027400026191900062030F0BFFD2060002070BD62
:10275000062805D14FF4007323802388B360F5E782
:1027600030F0B2FD2080F8E701232360EEE7062871
:1027700001D0430806D1336A002B0CBF0423002389
:102780002370E3E70123FBE70420E0E7062DFBD8F5
:1027900001A353F825F000BF4D2700084527000886
:1027A00055270008692700088927000877270008AF
:1027B000772700085C8A0708022970B50446154689
:1027C0001E4613D15368012B0AD0022B0CD01BB923
:1027D0001168201DFFF72FF9A3692B60002070BD41
:1027E00081692B681944F4E70169FAE701290AD1E4
:1027F0000430FFF72CF80028F0D0084B1B5C336046
:102800004FF0FF30EBE7042906D14368002BE5D0F9
:102810000430FFF753F8EEE71623F0E7788A07084D
:1028200037B51D46043001AB1446FEF750FF38B1F2
:10283000064B1B5C2B604FF0FF34204603B030BDCD
:10284000019BA342F9D01C23F4E700BF788A070854
:1028500013B51C46043001ABFEF7A3FE30B1044BA8
:102860001B5C23604FF0FF3002B010BD0198FBE706
:10287000788A070813B504460846019130F068FCD1
:10288000019B04490246204602B0BDE8104001F019
:102890006BB800BF648A07082DE9F84380461046EC
:1028A000894636F095FD2E4F2E49013800243A46D0
:1028B00010F8013FCBB92C2023F0EEF80646054670
:1028C00046F8047B484636F083FDE3B202463146C3
:1028D00008F14400FEF79EFD0746B8B3284623F0F2
:1028E000F5F8214BD85D2FF087FE782BE0D8712BBF
:1028F00008D8612B23D0622B24D02B2BD8D144F0C5
:102900000304D5E7723B062BD2D801A555F823F076
:102910002D290008B128000849290008B12800081D
:10292000B1280008332900083929000844F00104BF
:10293000BEE744F00A04BBE744F00604B8E744F0FD
:102940001204B5E70F46B3E71746B1E7E30603D530
:1029500029693046FFF76FF82846BDE8F88300BFC5
:10296000AC8A07088C8A0708788A07082DE9F04F97
:102970002DED028B87B006291E46B0EE408A9DF8E9
:102980004830019207468B4613D8012905D93F23C9
:1029900007F8013B00233B7001E00029FAD1BBF1AD
:1029A000010F94BF0020012007B0BDEC028BBDE8F1
:1029B000F08F10EE102A002A054623DAB4EE400A02
:1029C000F1EE10FA1ED62D2305F8013BB1EE408A38
:1029D0009FEDC97A019BF0EEC87AF4EE477AF1EEEA
:1029E00010FA03F0200312DD83F049022A7083F00D
:1029F0004E0283F046036A70E81CAB70002303703C
:102A0000C01BD1E7002BE3D005F8013BE0E7B4EEB3
:102A1000488AF1EE10FA08D743F04E0283F04103E2
:102A20002A706B70E81CAA70E8E7019B002E43F047
:102A30002009B8BF0626B9F1670F02D1002E08BFE2
:102A4000012618EE103AA5EB0708ABEB0808191E93
:102A500008F1FF3A1CD1B9F1660F09D1721C524539
:102A6000A8BFA8F10306721C6621002080460CE076
:102A7000721D5245A8BFA8F107060020B9F1650FE5
:102A800049460246F2D14FF02B088446044639E00D
:102A9000C1F3C752A2F17F0307EE903A9FED977AF8
:102AA000F8EEE77AB1F17E5F67EE877AFDEEE77ABE
:102AB00017EE904A80F0BE806242F8EEE70AB2EE6E
:102AC000040A029248F08AFB029A1446B4EEC08AC5
:102AD000F1EE10FA00F19080B9F1660F08D0B9F16B
:102AE000670F40F09480042C00F39180621E16441E
:102AF000721C5245A8BFA8F103060020721C804634
:102B000084466621652926EAE67340F0EC805A1C6B
:102B10000646ACEB00004FF0000AF2EE048A029089
:102B2000002A80F2ED80BAF1040F39DD681E4FF003
:102B3000300C02782E2A064600F1FF30F9D0A2F1BF
:102B4000300EBEF1090F40F2148101363278302A7E
:102B500026D170782E2840F01981662900F0168160
:102B6000B8F12D0F3070727040F00E81013C08BF3B
:102B70004FF02B08B54206F10100A6EB0501A0EBD2
:102B800005003CBF00210120A5EB0602294438BF07
:102B90000022284402934BF0C9FA3122029B327082
:102BA000B9F1670F0AD14BB12B461D46013B15F811
:102BB000012C302AF9D02E2A08BF1D46B8F1000F8B
:102BC00016D0019B85F801800A2103F0200A94FBAE
:102BD000F1F393FBF1F201FB123201FB13434AF0D4
:102BE000450A3032303385F800A0AA70EB70043506
:102BF00000232B70E81BD7E60134634200EE903AC5
:102C0000B2EE040AF8EEE00A48F0E8FA5EE7A8F14E
:102C10000603B34205DCB9F1670F14BFA8F107063C
:102C20001E4688EE008A6042494600224FF02D0879
:102C3000944667E7631C00EE903AB2EE040AF8EEA1
:102C4000E00A48F0CBFAB4EEC08AF1EE10FA16DAD8
:102C5000B9F1660F21D154452BDA321901325245B0
:102C600006DBAAEB0403012BA3F1020608BF002632
:102C7000321901322046A4464FF0000841E7A31C58
:102C800000EE903A621CF8EEE00AB2EE040A0292FC
:102C900048F0A4FA029A1446D5E7B9F1650F08D0B6
:102CA000B9F1670F12D02046494600224FF02B0899
:102CB000BEE7A8F10603B34201DCA8F10706002233
:102CC00020464FF02B08944665211BE7321D5245E4
:102CD00001DBA8F10606B44202DB20466721E4E7E7
:102CE000631CF61AC4E767297FF412AF002EDABF1F
:102CF000012213461A460BE7FFFF7F7F9B209A3E77
:102D0000002E33DD07EE906AB2EE040AF8EEE70A11
:102D1000CDE90432039148F061FADDE90313059A25
:102D20004FF0000AB4EEC80AF1EE10FA06DC0AF120
:102D3000010ABAF1090F38EE408AF3D1AC466AB104
:102D400002980AF1300EF0420CF801EB06D12BB1DB
:102D50004FF02E0E05F1020C85F801E0002ED8BFD1
:102D600028EE288A013A013E6546D9E6B7EE000A08
:102D7000D6E7392A02D001323270E7E6BE4280F847
:102D800001C07FF4D6AEE1E60134F3E66A1CD11B44
:102D9000594538BF1546EDE608B5044631B1054B37
:102DA0004A6C03600968002332F064FB204622F07D
:102DB0003DFE00BF006506082DE9FF471E46019253
:102DC000451812B1023A222A34D80446AC422746AA
:102DD00039D214F8010B23F03BFF80460028F5D1CF
:102DE0003B782B2B29D12746E91B384601AA2DF029
:102DF00050FF0744B9460024A9454B4626D3B8F1F5
:102E0000000F00D06442640044F00104BB4209D0CA
:102E10001F46AF423B4641D21878013723F018FFD6
:102E20000028F6D12049019A204832F0E3FA3146D1
:102E3000FFF7B2FF1E482FF0C5F92D2B04BF274620
:102E40004FF00108D0E74FF00008CDE719F8012B4B
:102E5000A2F1300ABAF1090F09D95F2ACCD042F0A9
:102E60002002A2F161011929C9D8A2F1570A0199DA
:102E70005145C4D920463DF00DF828B9019B03FB0C
:102E800004A494EA4403B7D5019B03974246E91B87
:102E900003A833F0A5FC039B0446B7E7C2D1204644
:102EA00004B0BDE8F08700BF6F58060890650608BB
:102EB0005A5806082DE9F04F2DED068B85B0CDE967
:102EC0000223149B9FEDB19ADFEDB19A4FF00009F8
:102ED0000AEE903A04464618CDF80490B0EE49AA9E
:102EE000B44280F09B81207823F0B2FE8046002817
:102EF0003ED123782B2B41D10134B44280F08E8116
:102F0000237843F02003692B3ED1A31C9E4240F25C
:102F10007A81637843F020036E2B40F07481A378AC
:102F200043F02003662B40F06E81E31D9E4204F1C6
:102F300003051AD9E37843F02003692B15D12379CF
:102F400043F020036E2B10D1637943F02003692BEB
:102F50000BD1A37943F02003742B06D1E37943F01E
:102F60002003792B01D104F108059FED8A8A20E026
:102F70000134B0EE498AB0EE489AB1E72D2BBFD1AB
:102F8000012301340193B8E76E2B42D1A31C9E426A
:102F900040F23981637843F02003612B40F03381A4
:102FA000A37843F020036E2B40F02D819FED7A8AA9
:102FB000E51C029B7BB1B5420DD22B7843F0200378
:102FC0006A2B08D1A542F7EE007A08BFB0EE678AF7
:102FD000013549F00209019B1BB10123B1EE488A7A
:102FE0000193A5420DD0B5422C4680F0E1802078B7
:102FF000013523F02DFE0028F5D1039B002B40F076
:10300000EB806649664832F05FF91AEE901AFFF7D6
:10301000C3FE0022DFED5D8AA646944613461146A4
:103020001046B2EE047A754615F801BBABF1300AD2
:10303000BAF1090F6ED8022825D15A4FB94202DCE5
:103040000A2707FB01A1AE4200F28F80B8F1000F02
:1030500000D049421344194411F1250FBEBFDFEDE2
:10306000527A253168EEA78A11F1090F7FD34B42BE
:1030700000EE903AB2EE040AF8EEE00A48F0AEF83C
:1030800088EE808A95E7BAF1000F04D0F4EEE98A61
:10309000F1EE10FA15DB08B90133D4E70CF1010C9D
:1030A0000120D0E7F4EEE98AF1EE10FA46BFF0EE27
:1030B0004A7AE8EE877A013203F1FF3348BFF0EE37
:1030C000678A002BEED16346F4EEE98A7BB9F1EE14
:1030D00010FA1BD507EE90AAF8EEE77A0128E8EE81
:1030E000877AF0EE678A3AD1013A9C46ABE7F1EE77
:1030F00010FA42BFF0EE4A7AE8EE877A02F1FF3228
:1031000003F1FF3348BFF0EE678ADDE750BB0132C1
:10311000844698E7A0B9BBF12E0FC1D04BF0200A2E
:10312000BAF1650F0ED1AE427FD99EF801002B286F
:103130000ED10EF10205B5423FF463AF022082E7E3
:103140000228EBD1BBF15F0F3FF47DAF75467DE701
:103150002D2809D10EF102054FF00108EBE79C463E
:10316000184670E79C469BE70220AE465BE707EEF9
:10317000901AB2EE040AF8EEE70A48F02FF820EEB3
:10318000288A16E79FED018A254616E70000000011
:10319000EC78AD600000807F0000C07F7B5806089F
:1031A0009065060864666606EA1C080200000000D6
:1031B0007FF423AFB9F1010F3FF423AFB9F1000F52
:1031C00011D0F0EE480AB0EE490A05B0BDEC068B0E
:1031D000BDE8F04F31F0DCB8B9F1000F7FF411AF6A
:1031E0004FF00109C7E6039B23B15FED100AB0EE73
:1031F000480AEAE7B0EE480A05B0BDEC068BBDE828
:10320000F04F32F047BA029B002BBBD1019B002B41
:103210003FF4F7AE1FED1B8A2546DEE600225FED88
:103220001D8A25461346114614E73FF4EAAE0DE722
:10323000084611464BF05EBF37B50546084601917A
:103240004AF0C2FF044620B102466B680199286823
:103250009847204603B030BD2DE9F74F89469DF8C9
:10326000301017460D9A11F0DF0F0646A2EB070249
:103270003DD0302925490CA813BF804688464FF021
:10328000100A4FF0010A13F0800535D002EBD2741A
:103290006510A2EB6404002D35DDAB46DA455246DD
:1032A00073683068A8BF5A46414601929847019A10
:1032B000ABEB020BBBF1000FF0DC2FB17368306891
:1032C0003A46494698473D44002C0CDD2544A2452A
:1032D0005746A8BF2746736830683A464146E41B04
:1032E0009847002CF3DC284603B0BDE8F08FDFF8E8
:1032F00020804FF0100AC6E713F0010401D11546F3
:10330000C9E71446D9E70025D7E700BFAD4806084E
:103310009C4806082DE9F04389B006460020119D1F
:103320009DF84880139F8DF80F000AB381421ADA86
:103330002D228DF80F204942109A08ACA2F10A0004
:103340000DF11009B1FBF3FC03FB1C12092A8CBF21
:103350001218303204F8012D4C458E4661460ED0CD
:103360007345EFD90BE0A80727D52B228DF80F2046
:103370000029E1D130238DF81F300DF11F0415F025
:1033800040099DF80F301CD023B30122CDE9008203
:103390002B460DF10F013046FFF75EFF013F8146DE
:1033A00008AACDE900872B46121B21463046FFF7BD
:1033B00053FF484409B0BDE8F0836A07D8D52022FE
:1033C000D4E7002BECD004AA9442E9D904F8013CDC
:1033D000013CE5E79946E3E72DE9F04F93B01E463F
:1033E0009DF874300793CB07DDE91E871C9D81464D
:1033F0000C4692460BD4880703D109687F4B99424B
:1034000005D020462FF060FF400040F0010415F089
:10341000810306D1079A302A03D1B845B8BFB84610
:103420001F46204633F0EEF800280DF1280B18DB7C
:10343000A90712D52B238DF828300DF12901EB06B1
:10344000F6B21DD5BAF1020F0DD10B46302003F8AC
:10345000020B701C4870194612E06A0701D5202340
:10346000E9E75946EBE7BAF1080F62D1A8054FF03A
:1034700030030B7045BF06F10E034B700131023172
:10348000002315F0200FA1EB0B020B700CBF1946A7
:103490002C21012F0EA8C8BF45F0400506920B90C5
:1034A00015F040024FF01000CDE90C03CDE90261A8
:1034B0008DF82730059246D0CDE900A30DAA23460A
:1034C0000CA90BA832F076FF03782D2B824606D18B
:1034D0008DF827300D9B013B00F1010A0D93012F60
:1034E00040F384800D9C059BBC42B8BF3C462BB189
:1034F0009DF8273003B10134069B1C44A0452DDD07
:1035000015F00103A8EB040429D126461C4625F03A
:1035100001054EB1202300930023019638491A4635
:103520004846FFF799FE0646059BD3B9302307931B
:103530003AE0BAF1100FA3D10B46302003F8020B8A
:1035400006F1170086E70AABCDE900A30DAA2346D2
:103550000CA90BA832F02EFF8246C0E700240026FB
:10356000D5E7302307939DF827305BB10023012274
:10357000CDE900320DF127014846FFF76DFE08F155
:10358000FF380644069B63B100230122CDE90032D7
:103590005946069A4846FFF75FFE069B0644A8EB8D
:1035A0000308012FD8BF4746079B00930D9A019748
:1035B0002B4651464846FFF74FFE06444CB12023A8
:1035C000009300230E4901941A464846FFF744FE33
:1035D00006440B980EAB984201D022F077FA3046A1
:1035E00013B0BDE8F08F00242646BCE7059B002BF6
:1035F000F9D11C461E464746D6E700BFE8680608D4
:10360000719507082DE9F04316468BB0B207DDF837
:1036100048900746984640D416F0040F0CBF00238C
:10362000202300930A46139B202102A8FFF79EF94E
:10363000F305044610D5431C1F2B0DD800F12802BA
:103640000DEB0204252204F8202C03F128026A4421
:10365000002102F8201C1C4616F040051FD09DF8E2
:1036600008302F2B4FF000031BD8012202A9CDE90F
:1036700000323846FFF7F0FD09F1FF390546013CFD
:103680000DF10901CDE90089334622463846FFF79E
:10369000E3FD28440BB0BDE8F0832B23C1E702A96A
:1036A000F0E702A91D46EDE72DE9F04F824689B00B
:1036B000144600260B461D4613F8012B82B9A94279
:1036C00011D30B78002B00F04681013120234FF0FD
:1036D00000080A4612F8015B7DB94FF00A0C2AE097
:1036E000252AE8D1EBE76F1ADAF80430DAF800009F
:1036F0003A4698473E442946E3E72D2D03D148F04A
:1037000001081146E5E72B2D02D148F00208F8E741
:10371000202D02D148F00408F3E7212D02D148F012
:103720000808EEE7302D22D148F040082B46E8E7A4
:103730000CFB0525303D0F4611F8012BA2F130009E
:103740000928F5D92E2A42D17A782A2A11D00A4698
:103750004FF00A0C0021174612F801BBABF1300004
:10376000092809D80CFB01BBABF13001F3E70025B8
:10377000B3E754F8041B023721EAE17B3A786C2A5C
:1037800008BF013797F80090B9F1000F00F0E3800F
:10379000B9F1780F6BD8B9F1570F1BD8B9F1470FB2
:1037A00062D8B9F1440F62D9073424F00704F4E871
:1037B000020104935AF0AEFFCDE9005B00EE100A5F
:1037C000049B424649465046FFF71CFF63E04FF01A
:1037D000FF3BD3E7A9F15802202A48D801A151F8AC
:1037E00022F000BF253900086F3800086F38000844
:1037F0006F3800086F3800086F3800086F3800080D
:103800006F3800086F3800086F38000881380008EA
:10381000A338000809390008A9370008A9370008AB
:10382000A93700086F3800086F3800086F380008A3
:103830006F3800086F3800086F3800086F380008CC
:103840006F38000847390008B73800086F3800089B
:10385000E13800086F380008253900086F38000883
:103860006F38000825390008B9F1500F6BD0DAF82D
:103870000430DAF8000001223946984701360BE09F
:1038800054F8042BCDE9003543463AB134490422BB
:103890005046FFF7E1FC0644791C0BE7314905224D
:1038A000F6E754F8042B8DF81C20CDE900350122F1
:1038B000434607A9ECE707A954F8040B049322F048
:1038C000A0FFBBF1FF3F049B014604D0079A93453C
:1038D00038BFCDF81CB0CDE90035079A4346D7E78D
:1038E00054F8041B0593084604914AF06DFCBBF1A3
:1038F000FF3FDDE90413024602D0584528BF5A466F
:10390000CDE900354346C3E7CDE902356123009395
:10391000CDF804800A23012254F8041B5046FFF717
:10392000F9FCB8E729F00F0209F101010F3A01F0A3
:103930000601D2B2CDE90235CDF804800092C1F182
:1039400010030022E8E7CDE9023561230093CDF8AA
:1039500004801023F5E7304609B0BDE8F08F00BFC2
:10396000884806088D4806080EB403B503AA52F825
:10397000041B0192FFF798FE02B05DF804EB03B060
:04398000704700008C
:020000040802F0
:10000000FEE700000F49D1F8883043F47003C1F8CF
:1000100088300D4B1A68002042F001021A60986087
:100020001A6822F0847222F480321A60074A5A60F9
:100030001A6822F480221A60D8604FF000638B6047
:10004000704700BF00ED00E000380240103000248F
:1000500070B5002494B010252A4621460AA80494BD
:100060002EF078F8384B01941A6C42F080521A64E2
:100070001B6C03F080530193019B344B029419686D
:1000800041F4404119601B6803F440430293029B12
:1000900001224FF48033CDE908234FF4800302227C
:1000A000CDE90E23CDE90B450F230393284BD3F85D
:1000B0009C30C3F38340811E0D2924D8C3F38915D6
:1000C000A5F1C001F0291ED813F03E041BD0C3F3E4
:1000D00001429C0C190C013203F03F065B0F5200E9
:1000E00004F0F00401F4E0519B02CDE9122008A8CD
:1000F000CDE91065CDE90541079331F0F1FD50B12F
:10010000144836F053F94FF480534FF4A0510420B3
:10011000C0251926E9E7119B19214B431099B3FB20
:10012000F1F33021B3FBF1F201FB1232003A1299E4
:10013000B3FBF1F118BF012203A837F025FD08B188
:100140000548DEE714B070BD003802400070004082
:1001500000280040F8EA05080AEB05080446DFF825
:100160002CD00B490B4A0C4B03E051F8040B42F81E
:10017000040B9A42F9D300200849094A01E041F8EA
:10018000040B9142FBD3204636F09ABAF8BF012007
:1001900078E70708000000207401002074010020A7
:1001A0009C25002040F8044B40F8045B40F8046BA9
:1001B00040F8047B40F8048B40F8049B40F804AB03
:1001C00040F804BB40F804CB40F804DB68467047B5
:1001D00030B403680D4611465A7C03EB82032A466D
:1001E0001B699C680023A44630BC604773B51D465C
:1001F000836D8DF80710044616461BB1D3E9033210
:100200001B0493619DF8073053B1636D6068D3E9B7
:1002100003321B0493610DF107010122FFF7D8FFA0
:10022000002D08DD636D6068D3E9033231469361C8
:100230002A46FFF7CDFFA36D13B1D3E903329361D3
:1002400002B070BDF0B5134E134A3468176800222F
:100250000346114610466FEA040C4FF0010E8B4224
:1002600001EB040503DC234402B13360F0BDED086B
:10027000ACEB01027D5D02F007020EFA02F22A42A7
:100280004FEA400018BF40F00100C0B20131012226
:10029000E5E700BF780100207401002013B590F855
:1002A0003E2090F8443090F84C109A4203D93149DE
:1002B000314811F0A6F9036C3BB9838EF02B16D1AF
:1002C000038FB3F5A07F1AD12C4B02EB820203EB14
:1002D000420413F8123019436388C386A388438706
:1002E000E38880F83C30238980F83D302BE0AA2B4E
:1002F00009D1038FB3F5A07F25D1214BE5E7F02B82
:1003000021D1204BE1E7872B04D1038FF02B1AD1A9
:100310001D4BDAE7802B0FD1038FA02B06D11B4B8F
:10032000D3E7038FA02B0ED1194BCEE7802B0AD138
:10033000184BCAE7184BC8E7502BF2D0842B02D1D8
:10034000038FA22BF6D0C38EA0F86230438FA0F8A3
:100350006430002380F84E10A0F86630A0F86830B2
:100360008DF80410012301AA3621FFF73FFF02B0E8
:1003700010BD00BF1EEB050894640608F4000020C1
:10038000A4000020CC0000207C0000202C000020D5
:100390001C0100200400002054000020408F16F0B3
:1003A00090B9C08E16F08DB97FB50C680646B4F8CA
:1003B00062000D4616F085F90090B4F8640016F05E
:1003C00080F9022E019033D9A86813F0CFF878B3E2
:1003D000B4F86600B4F86230C01A013016F071F952
:1003E000022E029027D9A86813F0C0F818B3B4F809
:1003F0006800B4F86430C01A013016F062F9012EBA
:1004000003900FD9686813F0B1F8E38EA4F8623056
:10041000638FA4F86430002384F86000A4F8663089
:10042000A4F86830694604201AF02AFB04B070BDB5
:10043000B4F86600D2E7B4F86800DEE72DE9F043CF
:100440002DED028B0B4687B0586802AA01A912F065
:10045000E5FF019B002B40F083804549454811F0A2
:10046000C7F8029B04AA53F8280003A912F0D6FF8C
:10047000039B012BF1D9049B186812F025FF049B04
:100480000546586812F020FF019B08F10108044658
:10049000B8FBF3F003FB1080029B04AA53F8200082
:1004A00003A912F0BBFF039B012BD6D9049B18684C
:1004B00012F00AFF049B8146586812F005FF00FB0A
:1004C00005F309FB143307EE903A05EB090307EE39
:1004D000103AF8EEE76AB8EEC77A38EE268A27EEC9
:1004E000267ABDEEC77A17EE103A1F44231807EE9E
:1004F000903AF8EEE77A67EEA67AFDEEE77A17EE25
:10050000903A1E44019B4345ABD8F0EE087A28EEA2
:10051000278AF7EE007A87EE887A07EE907AF8EE6F
:10052000E77A06EE906A67EE877AB8EEE68AFDEE25
:10053000E77A28EE078A17EE900A16F0C2F8FDEE69
:10054000C87A049017EE900A16F0BBF804A905903B
:1005500002201AF095FA07B0BDEC028BBDE8F083DB
:100560004FF000089FED048A46464746CAE700BFA1
:1005700034EB0508946406080000000070B5D1E96A
:1005800000600C4612F0A0FE0546A06812F09CFE2A
:1005900086F83C5086F83D00062070BD022837B52D
:1005A0000D680DD1486812F08FFE0123C4B201AA74
:1005B000362128468DF80440FFF718FE85F84E4096
:1005C00095F84E0003B0BDE8304016F07AB813B588
:1005D0000446084612F078FE02128DF804208DF8C9
:1005E00005000223204601AA3721FFF7FFFD062060
:1005F00002B010BDF7B5D1E900700C4612F064FEF0
:100600000646A06812F060FE0546E06812F05CFE47
:1006100032128DF800202A128DF8022002128DF875
:1006200004208DF80500062338466A4633218DF8EC
:1006300001608DF80350FFF7D9FD062003B0F0BD2F
:1006400010B50446084612F03FFE424202F0030293
:1006500000F0030358BF5342204684F83E30FFF7B2
:100660001DFE062010BD000030B52DED048B056881
:1006700083B00446B0EE408AF0EE608AF0EE419A14
:100680008DED000ACDED010A75B1B0EE410A2DF0F5
:1006900029F8B0EE409AB0EE690A2DF077FCDFED54
:1006A000165A0022954203DC03B0BDEC048B30BD2A
:1006B000636803EBC203D3ED017A93ED007A77EE22
:1006C000E87A37EE487A67EEC06A69EE277AE9EE93
:1006D000076A0132E0EE077AB0EE666A38EEA57A74
:1006E00078EE256A77EE277A76EE866AC3ED017A90
:1006F000C3ED006AD6E700BF000000002DE9F74F08
:10070000466F8B46F06851888842154630D8736929
:10071000128893422CD33469EF88BC4228D8D6F88B
:1007200018C0B5F804E0F44522D39042824638BFA1
:100730009246744538BF744601F10109674528BFE8
:100740006746A9EB0209994294BFCAEB0102CAEBC2
:10075000030203F101080132A8EB00085200A4B221
:10076000BFB21FFA88F81FFA89F992B2BC4203D9C6
:10077000012003B0BDE8F08F3069A9880192231AE7
:10078000F068A4EB010C2988AAEB000008FB030029
:10079000AAEB0101736809FB0C110BEB410103EBA0
:1007A000400001342DF092FCA4B2019ADEE738B586
:1007B000456F14460B46D5E909120819904288BFC7
:1007C000541A2BB1286A2246014418462DF07EFCAB
:1007D0006B6A23446B62204638BD2DE9F843164608
:1007E0009588748812888846416FA41A8B684F6870
:1007F000013403FB052064005B0007EB4007A4B253
:100800001FFA83F9F388AB4202D20120BDE8F883D6
:1008100041463846224601352DF058FCA0444F444D
:10082000ADB2EFE7406F10B5006813460C4619B142
:10083000BDE8104002F006BD0122194602F013FD8A
:10084000204610BD2DE9F04F0C4687B005226946C1
:10085000606812F077FF03A90622A06812F072FF09
:10086000E06812F031FD0546206912F02DFD0646C4
:10087000606912F029FD0023DDF80080039FDDF898
:1008800004E019464FF001099E4503DC062007B03D
:10089000BDE8F08F18F803A0BA1C072409FA04F782
:1008A00017EA0A0F14BFB44684460131CCF3072B74
:1008B0008D42174602F802BC02F801CC07DD013C6C
:1008C000B4F1FF3F02F10202E8D10133DCE700217D
:1008D000FBE70000F0B52DED028B0646D1E9017073
:1008E00089B00023ADF80430C3070D4605D4840752
:1008F0004FD10268374B9A424BD112F0E5FC01AC64
:100900008DF80400032E4BD9E868810745D10268B1
:10091000314B9A4241D114F024FFB0EE408AE8688E
:10092000C20705D4830709D102682A4B9A4205D130
:1009300012F0CAFC07EE900AB8EEE78A7E6840F62D
:100940005A61304614F0B8F9052202A912F0FAFEF5
:1009500040F6C2413046029D14F0AEF9052205A9C9
:1009600012F0F0FE0599002214F8013BDBB907EE06
:10097000902AF8EEE77AB6EE007AA7EE887AFDEED6
:10098000C77A17EE900A15F09CFE09B0BDEC028BF9
:10099000F0BD18F01DFD0446B4E7B7EE008ABEE7CF
:1009A000B7EE008ACAE7203BD8B25F28DCD85B00EC
:1009B0009BB2581C80B2EB5C285C43EA0023981C75
:1009C000013300B21BB20856CB56C31A1A4412B2F6
:1009D000CAE700BFE868060840660608C26D08B5A9
:1009E00042B1417ED2E9033231B1936142F21070DB
:1009F00037F060F8062008BD1B04F6E708B5C36DA4
:100A00004BB1417ED3E9033201B11B04936142F241
:100A1000107037F04FF8062008BD0000836D10B548
:100A200004461BB1D3E903321B049361236D13B158
:100A3000D3E9033293614CF2503037F03BF8236D29
:100A40001BB1D3E903321B0493614CF2503037F0F1
:100A500031F8236D13B1D3E903329361044837F0C1
:100A600029F8A36D13B1D3E903329361062010BDB9
:100A7000F049020008B500231A460121FFF7B6FB32
:100A8000024837F017F8062008BD00BFF049020001
:100A900010B50446084612F069FD034680B1E26DC8
:100AA00022B1617ED2E9033241B1936100231A463B
:100AB00010212046FFF79AFB062010BD1B04F4E727
:100AC000024611212046FFF791FB064836F0F2FF5F
:100AD000E36D002BF0D0617ED3E9033201B11B043A
:100AE0009361E9E7A08601002DE9F04F4B685D684E
:100AF00089B00C46284641F2B27114F0DDF80522A7
:100B000005A912F01FFE059B009340F6527128467E
:100B100014F0D2F800F00703022B1BD103A9C00880
:100B200005F06FFE0646A06800F00703022B15D102
:100B300004A9C00805F065FE0446049B4FF00009B7
:100B400004EB030A54450DD3484615F0BAFD09B02D
:100B5000BDE8F08F8368C6680393E4E78368C468E0
:100B60000493EAE7204606F02FF88346204606F075
:100B700048F8039B044606EB030835460027454525
:100B8000E0D2284606F020F80190284606F039F811
:100B900001998B45054607F1010206D1009BBFB2C2
:100BA000DB5D99441FFA89F9CCE71746E7E70000B7
:100BB00007B54B6800934B8FCA8E0349E2F7D4FE0A
:100BC00003B05DF804FB00BF43EB0508F0B597B038
:100BD000084611461A4606AB0193624B0093102358
:100BE00012F028F86C2004F049FF5F4B0360069B6D
:100BF0004360BDF81C308386C386BDF82030038770
:100C00004387002504230446056480F844300D988A
:100C100090B103AA02A9039512F000FC029884F88F
:100C200044000A23C0B2584304F028FF2F46206432
:100C300094F84430AB422EDC0E9B94F8442093FB96
:100C4000F2F102FB113384F83E300F9BA364109B3A
:100C500084F84C309DF8443084F84D30129B84F871
:100C60004F30139B23639DF850309DF8542023761A
:100C70006276002B51D0608FE38E58434000206194
:100C8000002105F0C7F96061002839D12076374985
:100C9000374810F0ADFCCDE90477039B04AA53F864
:100CA000250005A919F0FAFF059B052B02D0314854
:100CB00011F088FA049B186812F006FB0A266E43AE
:100CC000236C9855049B586812F0FEFA236C334449
:100CD00001355880049B986812F0F6FA236C33446F
:100CE0009880049BD86812F0EFFA236C3344D880C4
:100CF000049B186912F0E8FA236C3344188197E7D3
:100D0000226900212DF026FA206B08B104F0B6FE0E
:100D10000A9BE0601BB91848CAE76361F4E70998C9
:100D200008B138F067FB20650A9838F063FB60650E
:100D30000B9808B138F05EFBA0650C9808B138F04C
:100D400059FBA28EA4F86220228FE0650023204682
:100D500084F86030A4F86420A4F86630A4F8683001
:100D600017B0F0BD98EC0508E4EF050880EB050826
:100D70004C64060868EB05089EEB050873B59942BC
:100D80000446BDF8180051D8E58E9D424ED98242E6
:100D90004CD8658F854249D994F86050BDB1B4F8FC
:100DA00062508D42B4F8665088BFA4F862109D422C
:100DB000B4F8645038BFA4F866309542B4F868506F
:100DC00088BFA4F86420854238BFA4F8680094F86E
:100DD0003C5029442B440E128DF801108DF803303D
:100DE000191294F83D308DF802101A440344111280
:100DF0008DF805201A128DF804108DF806208DF854
:100E000007306A4604232A2120468DF80060FFF748
:100E1000EDF904230DEB03022B212046FFF7E6F941
:100E200000231A462C212046FFF7E0F902B070BDDE
:100E30002DE9F74F13885488D588D0F87480B2F81C
:100E400004B0D8F81C70E41A013401356400A5EB35
:100E50000B05D8F8043081468A461646A4B2ADB2D6
:100E6000F08858452CD2B9F87AC07388B288B9F89E
:100E70007810368860440B44624480B2314400905C
:100E80009BB292B289B23846FFF778FF7B6DD3E907
:100E900003329361BB6D1BB1D3E903321B04936131
:100EA000D8F80410786805FB04F2FFF791F9BB6DE0
:100EB00013B1D3E903329361012003B0BDE8F08F91
:100EC0005146184622462DF001F90BF1010B03465D
:100ED000A24423441FFA8BFBC2E72DE9F0430E46E0
:100EE00087B005220F68706803A912F02BFCB06868
:100EF00012F0EAF98046F06812F0E6F981463069AE
:100F000012F0E2F90546706912F0DEF910FA89F67E
:100F100015FA88F3013E013BB6B29BB21FFA89F283
:100F2000044600961FFA88F13846FFF727FF7B6DCD
:100F3000D3E903329361BB6D1BB1D3E903321B04C8
:100F4000936104986C436400844228BF0446002CDB
:100F50002546B8BF04F1FF052D120026AE4217DB6F
:100F600014F0FF0225EAE57509D064420399786818
:100F7000E4B258BF624201EB0521FFF729F9BB6DCE
:100F800013B1D3E903329361062007B0BDE8F083C3
:100F90000399786801EB06214FF48072FFF718F986
:100FA0000136DBE72DE9F04F81468868C307D1E9B8
:100FB000004699B00D4608D410F0030340F0868037
:100FC00001689C4A914240F0818012F07DF94FF017
:100FD00001088DF853000DF1530AE86812F074F916
:100FE0000390286912F070F97668089041F2AA71AE
:100FF000304613F061FE12F067F940F6BA510590E1
:10100000304613F059FE12F05FF940F66A41074688
:10101000304613F051FE12F057F940F6E2610690A7
:10102000304613F049FE12F04FF940F6C2418346B4
:10103000304613F041FE052215A912F083FB159BE3
:101040000E93B9F1050F5ED9686912F03DF904906D
:10105000686912F039F9049B0002C3F3072380B2D8
:101060000343B9F1060F079350D0A86912F02CF989
:101070008146A86912F028F90002C9F3072980B255
:1010800049EA00039DF814600493FFB206FB07F3DE
:101090004FEA4309236B002B3ED16369002B37D005
:1010A000E3609DF818300C935FFA8BF30D93F3080F
:1010B0000F9309937B430A930AEB08031293BDF83D
:1010C00020300893013BFB1813936FE000F00702F8
:1010D000022A04D0A3B90368574A934206D118F0F4
:1010E00077F982462DF070F8804676E7534A9342AE
:1010F00006D1052215A912F025FBDDE915A86CE73C
:101100004F4811F02FFA4FF6FF7307930023B9E70A
:10111000484604F0B3FCE060E368002BC1D1062030
:1011200019B0BDE8F08F1AF801BB0C9B5B453DD8A8
:101130000D9B5B453AD39DF81830ABEB030B0A9B34
:101140001BFB03FB00231FFA8BFB05939DF8142068
:101150000BEB030C97421FFA8CFC68D8039ABDF87E
:101160000C10731E13FA82F3E28E9BB29A421AD9C4
:10117000BDF84C2000922046089AFFF7FFFD636DF2
:10118000D3E903329361A36D1BB1D3E903321B048E
:101190009361E16860684A46FFF71AF8A36D13B1DE
:1011A000D3E903329361039B33440393129B9A4523
:1011B000B9D1236B002BB2D12369002BAFD1E068EA
:1011C00004F084FCABE70E99095C1091E1680B9187
:1011D00000201199079D01EB000E1099C0F107083E
:1011E00041FA08F8049918F0010F08BF88461FFA61
:1011F0008EFE0B9900F1010018BFA846082821F8BF
:101200001E80E6D1013213FA82F1C90089B2119130
:101210000F995FFA82FE1CFA82F0714580B2D2D833
:10122000059A01320592099A13449BB28EE7002277
:10123000E9E700BFE8680608A075060830740608EC
:10124000A5EB05082DE9F04F2DED028B8046A7B0E8
:10125000C8680E46D1E9004712F036F805903069AB
:1012600012F032F8B8F1050F0F9040F2D680706995
:1012700012F02AF80546706912F026F80002C5F34C
:10128000072580B245EA0003B8F1060F0A9300F083
:10129000C780B06912F018F80546B06912F014F86A
:1012A0000002C5F3072580B245EA00030025B8F126
:1012B000070FCDE91655039340F2B780F06916AADF
:1012C00017A919F0EBFC179B022B40F2AB80169B81
:1012D00005221AA9186812F035FA169B1A9D58684B
:1012E00011F0F2FF169B1FFA80FB986811F0ECFFDB
:1012F00083B20293B8F1080F00F09B80306A12F0BD
:1013000035F904907F6840F62A21384613F0D4FC62
:1013100011F0DAFF40F6BA51C3B2384608EE103A7F
:1013200013F0CAFC11F0D0FF40F6EA71C3B23846A0
:10133000089313F0C1FC11F0C7FF40F662710D90E5
:10134000384613F0B9FC11F0BFFF41F2B271C3B2DD
:1013500038460B9313F0B0FC05221DA912F0F2F9E8
:101360001D9B109340F6E271384613F0A5FC052250
:1013700020A912F0E7F940F60A213846DDF880A0EE
:1013800013F09AFC052223A912F0DCF99A4B239A58
:101390001A60236B1BB96369002B4DD0E360049B7B
:1013A0004BB145B1E06830B1029B03FB0BF2520038
:1013B00029462CF08BFE40F65271384613F07CFC27
:1013C00000F00703022B40D118A9C00805F019FA54
:1013D0000790B06800F00703022B3BD119A9C008A1
:1013E00005F00FFA0646199BF31811930023069394
:1013F000BDF80C301393119B9E422FD3236B23B95E
:10140000236913B9E06804F061FB069815F059F9F7
:1014100027B0BDEC028BBDE8F08F4FF6FF730A9347
:10142000002343E70295AB4664E70295AB4604957B
:1014300068E70023049365E70B9B089A02FB03F01F
:10144000400004F01BFBE060A9E783681893C368C1
:101450000793BEE78368C6681993C4E7304605F072
:10146000B3FB8046304605F0CCFB189B079ADDF8AD
:101470001C9006461A4400279145BCD248460C925F
:1014800005F0A2FB0990484605F0BBFB09990C9AB0
:101490008845814607F1010340F0AC80109B574A14
:1014A000BFB213F80790002313609DF83430022B6D
:1014B00022D0032B28D0012B02D11AF80730136059
:1014C000049B73B3BDF82C70BDF820200992002353
:1014D000099A9A425BD903FB0BF105EB41010E918E
:1014E0001FFA89F103FB07F21291BDF828100C9145
:1014F00052004FF0000833E01AF817100AEB4707C4
:101500007B7803EB0123DAE707EB47070AEB0701D8
:101510001AF80730487889781B0403EB00230B4442
:10152000CDE71FFA89F7CFE715B3584520D80299C0
:101530008B421DD818EE100ACDE91432FEF782FE58
:10154000039B98420ABF0E99DDF830C031F818C0ED
:10155000DDE91432E06808F1010820F802C0023227
:1015600012991FFA88F08842DED301339BB2AFE7AD
:1015700018EE100ACDE91432FEF764FE139B0C9AA4
:1015800000280CBF9C469446DDE91432E2E7BDF822
:101590001410E28E4B1E3B441FFA83FC624525D992
:1015A000BDF83C20099B501E034498B2009063464E
:1015B0002046FFF7E3FB636DD3E903329361A36D2C
:1015C0001BB1D3E903321B049361089BE168606897
:1015D00003FB07F25200FEF7FBFDA36D13B1D3E945
:1015E00003329361069B4B449BB20693059B4B448D
:1015F000059300E71F463FE77401002078010020B3
:1016000010B50446084611F0B1FF034684F84D00BA
:1016100038B100231A4620212046FEF7E7FD0620B8
:1016200010BD02462121F7E72DE9F04F2DED028B89
:1016300006468DB088680D46D1E9004B11F044FE96
:101640000290E86811F040FE042E03906BD92869DF
:1016500011F03AFE0746DBF8048040F6BA514046E6
:1016600013F02AFB11F030FE41F2AA718146404688
:1016700013F022FB11F028FE40F62A2183B2064621
:101680004046049313F018FB11F01EFE41F2920144
:10169000C3B20546404608EE103A13F00DFB8246F1
:1016A000DBF80400002240F60A210430CDE90722CD
:1016B00011F024FB002838D04068002835D011F004
:1016C00003FE1FFA80FB07AA504608A911F0A6FEE8
:1016D00040F60221404613F0EFFA052209A912F064
:1016E00031F83C4B099A1A60B6B21FFA89FA226B9C
:1016F00006FB0AF34FEA430812B96269BAB1E26025
:10170000354A00211160BBF1000F05D0BB4515DD46
:10171000EDB25D436F43176000273D46574525D026
:1017200005EB060B1EE0002795E78346CBE7404616
:10173000059304F0A3F9059BE060E1E727492848F9
:101740000FF056FF079B059318EE100AFEF77AFD7F
:10175000059B00B253F8200011F0B6FDE36823F8B2
:10176000150001355D45EDD10137D7E7BDF808100B
:10177000049A4B1E1A4493B2E28E9A421DD9BDF8C8
:101780000C20551EA9441FFA89F500952046FFF745
:10179000F5FA636DD3E903329361A36D1BB1D3E90D
:1017A00003321B049361E16860684246FEF710FD56
:1017B000A36D13B1D3E903329361236B23B923697A
:1017C00013B9E06804F082F906200DB0BDEC028B7D
:1017D000BDE8F08F7401002078010020BCEB050803
:1017E0004C6406082DE9F041054682B02C7E00AF1E
:1017F0000846E4B1696919B9214922480FF0F8FE99
:101800001402A4B244EA12225C1C04EBD47442EA2F
:10181000024264100D46013C06D25A00FEF7D8FC85
:101820000837BD46BDE8F08145F8042BF3E7A02555
:101830006E4652BAD0B093FBF5F892B205FB18355C
:101840006946A34201DDA02C08D1B8F1000F15D1E3
:1018500015B16A00FEF7BCFCB546E1E721F814209B
:101860000134EEE74FF4A072C7E90010FEF7B0FCB8
:10187000D7E900100134A045F4DCE9E70024FAE7D9
:10188000C2EB05084C640608F7B51E46C38E089FD8
:101890008B42044631DDB0F83AE096452DDD751EE9
:1018A00007F1FF3C15FA81F51CFA82FCADB21FFA74
:1018B0008CFCE64594BFCDF800E0CDF800C0AB420B
:1018C00028BF2B4692B289B2FFF758FA636DD3E96D
:1018D00003329361A36D1BB1D3E903321B049361FF
:1018E00007FB06F3BDF8242061682046FFF77AFF66
:1018F000A36D13B1D3E90332936103B0F0BD70B5AA
:10190000D1E9006086B00C4611F0DEFC0590A068BD
:1019100011F0DAFC0490E06811F0D6FC0390206925
:1019200011F0D2FC0546606911F0CEFC80B2CDE921
:101930000050DDE9033230460599FFF7A5FF062088
:1019400006B070BD30B504468BB0FFF767F8A56CE4
:10195000002D60D12046FFF78DF82B462A46112135
:101960002046FEF743FC55238DF8103004AA0123CE
:101970003A212046FEF73AFC42F2107036F09AF80F
:1019800094F84D30002B43D02B462A462021204688
:10199000FEF72CFC00231A4613212046FEF726FCF6
:1019A00042F2107036F086F8002320461A462921AC
:1019B000FEF71CFC344836F07DF82046FEF76EFC3E
:1019C00042F2107036F076F80020049414F079FE9C
:1019D0000590002014F075FE0690E08E14F071FE64
:1019E0000790608F14F06DFE0890002014F069FEDF
:1019F00004A909900620FFF782FFE36D2BB1617EF9
:101A0000D3E9033201B11B04936106200BB030BD52
:101A10001A462121BBE7284601AA694611F0FEFCBF
:101A20000025009B9D42C8D2019B03AA53F82500C4
:101A300002A911F0F3FC039B0122186804A911F01C
:101A400081FEF8B1DDE90423012B98BF0023117852
:101A50008ABF03F1FF331A4601322046FEF7C6FB68
:101A600042F2107036F026F8029B012B0AD9039B34
:101A7000586811F029FC002804DD4FF47A735843AC
:101A800036F018F80135CCE7F049020037B50446C6
:101A9000084611F019FC618FE38E0139002289B2EA
:101AA000013B00919BB2114605462046FFF766F9BF
:101AB000636DD3E903329361A36D1BB1D3E90332A4
:101AC0001B049361628FE38E616853432046AAB280
:101AD000FFF788FEA36D13B1D3E9033293610620AB
:101AE00003B030BD2DE9F0478146D1E9007010F018
:101AF0000304DFF888A1B2B00E466DD10268544BE2
:101B00009A4269D1052202A911F01CFE029B109392
:101B1000039B12934F4B1194CAF80030BC60B9F18B
:101B2000020F67D0B9F1060F40F08F80B06811F056
:101B3000CBFB0546F06811F0C7FB0446306911F095
:101B4000C3FB8046706911F0BFFB064640F61C409F
:101B500003F094FFDAF80010F8610246002970D013
:101B6000089B13B9109B002B6DD008AB009313A8F2
:101B700040F61C4301F03AFC002844D1B9F1050FAE
:101B80009FBF0446BDF86A60BDF868802546CDE970
:101B90000B543444013C0E9406FB08F445446400A5
:101BA000013D20460D9503F069FFF86038B32246E9
:101BB0004BF6EF612CF0CEFAFB6809932649BDF88D
:101BC00068300A93002213A80F9701F027FE0546FC
:101BD000D8B12249224814E017F0FAFB214901F05C
:101BE00013FB214BCAF800300023B8600890109313
:101BF000129394E70026B04634463546A6E71B49C3
:101C00001B480FF0F5FC1B49E4E7B86810B101F080
:101C100038FBBD60F86903F059FFF968204612F0FF
:101C2000CFF90590404614F04CFD0690304614F074
:101C300048FD05A90790032018F022FF32B0BDE847
:101C4000F0870C46E6E71C46E4E70B4810F08AFCF8
:101C500030740608AF070208FD060208E0EB05082D
:101C6000946406087816060825080208DBEB0508C8
:101C70004C640608F7EB05080BEC05088001002012
:101C80002DE9F0430646D1E9004010F00307DFF8E4
:101C9000C091B1B00D464BD10268634B9A4247D117
:101CA000052203A911F04EFD039B0E93049B109394
:101CB0005E4B0F97C9F80030A760A86811F004FBCD
:101CC0000746E86811F000FB042E80463ED92869DB
:101CD00011F0FAFA064640F61C4003F0CFFED9F8A0
:101CE0000010E0610246002900F08E80069B1BB9BF
:101CF0000E9B002B00F0888006AB009311A840F6E5
:101D00001C4301F073FB002840F0888006BBBDF83F
:101D10006050BDF86230DFF83C915D436D00236B8D
:101D200023B3AB4225D2424942482A460FF069FC10
:101D300017F04EFB404901F067FA404BC9F80030FC
:101D40000023A06006900E931093B6E70026C2E72A
:101D50009DF852509DF85330DFF8FC90ADF8BC7000
:101D600015FB03F5ED01ADF8BE80D8E7636933B12B
:101D7000E360E36843B932492E480FF039FC284646
:101D800003F07CFEE060F4E707930022BDF86030CA
:101D90000893494611A80D9401F040FD00283AD15E
:101DA00036BBBDF86260BDF86030013E013B16FAFB
:101DB00088F613FA87F3B6B29BB21FFA88F2009640
:101DC000B9B22046FEF7DAFF636DD3E903329361BF
:101DD000A36D1BB1D3E903321B049361E168606812
:101DE0002A46FEF7F5F9A36D13B1D3E903329361E7
:101DF000236B2BB925691DB9E06803F067FEE56028
:101E0000A0680025079558B9E06903F05FFE062039
:101E100031B0BDE8F0830B490B48AEE70B49FBE757
:101E200001F02FFAA560EFE730740608AF0702084B
:101E30001DEC05084C6406087816060825080208FB
:101E4000DBEB0508E0EB050894640608F7EB0508F2
:101E50007C010020DB070208310E020870B50C4639
:101E6000164611F031FA0546204611F02DFA0446C7
:101E7000304611F029FA074AC0F3C40302EA0522EA
:101E8000E000134300F4FC60184380B2400040F0CF
:101E9000010070BD00F8FFFF7FB590F84F60C58E60
:101EA0000446B0071CD0B0070BD58D4201DD0029D8
:101EB00007DA91FBF5F005FB10110029B8BF4919AD
:101EC00009B2F0070CD5668FB24201DA002A07DAB0
:101ED00092FBF6F006FB1022002AB8BF921912B24C
:101EE000A9422DDA608F82422ADA002928DB002AF3
:101EF00026DB180A92B28DF80F308BB28DF80E00E7
:101F0000009219462046FEF739FF636DD3E903328C
:101F10009361A36D1BB1D3E903321B049361606825
:101F200001220DF10E01FEF753F9606801220DF157
:101F30000F01FEF74DF9A36D13B1D3E9033293619D
:101F400004B070BD2DE9F7431E4690F84F30BDF840
:101F5000288013F0030305460F46144642D100299A
:101F600030DBC28E8A422DDD418FA1422ADD002C5A
:101F7000BEBF361936B21C46A3199942BCBF091B15
:101F80000EB2002E1EDDA2B2501E3044BBB280B293
:101F9000009019462846FEF7F1FE6B6DD3E9033237
:101FA0009361AB6D1BB1D3E903321B0493613346DC
:101FB000696842462846FFF715FCAB6D13B1D3E9BB
:101FC0000332936103B0BDE8F08304EB090243469A
:101FD00012B239462846FFF75FFF09F101094E4565
:101FE000F3DCEFE74FF00009F9E72DE9F04FD1E915
:101FF00000B087B00C4611F067F90646A06811F0F2
:1020000063F98246E06811F05FF90546206911F036
:102010005BF91FFA8AF3C5F101080027B6B20393F2
:102020001FFA80F9AF4203DD062007B0BDE8F08F4C
:10203000039BCDF800901FFA85FAA3EB0A0216FA6B
:1020400087F14FEA4A03BCB212B21BB209B258463A
:10205000CDE90423FFF776FF311BDDE9042309B244
:102060005846CDF80090FFF76DFF039BCDF8009028
:102070001A1B06EB0A01630012B21BB209B25846E2
:10208000CDE90423FFF75EFFA6EB0A01DDE9042397
:10209000CDF8009009B25846FFF754FFB8F1000F91
:1020A000ABBF7B1B08EB470808EB430808F10308AC
:1020B000A4BF08F1050805F1FF350137B2E72DE9A6
:1020C000F341D1E900800C4611F0FEF80546A06806
:1020D00011F0FAF80646E06811F0F6F807462069B4
:1020E00011F0F2F880B200903BB2404632B229B211
:1020F000FFF728FF062002B0BDE8F0812DE9F04F80
:10210000D1E9007085B00C4611F0DEF88246A06877
:1021100011F0DAF80546E06811F0D6F806462069B5
:1021200011F0D2F81FFA8AF30093ABB20193C6F113
:1021300001094FF0000883B2B04503DD062005B069
:10214000BDE8F08F009A029312FA88F1019A12FA10
